{
  "contractName": "DriverContract",
  "abi": [
    {
      "anonymous": false,
      "inputs": [
        {
          "indexed": false,
          "internalType": "uint256",
          "name": "id",
          "type": "uint256"
        },
        {
          "indexed": false,
          "internalType": "string",
          "name": "hash",
          "type": "string"
        },
        {
          "indexed": false,
          "internalType": "string",
          "name": "name",
          "type": "string"
        },
        {
          "indexed": false,
          "internalType": "uint256",
          "name": "tipAmount",
          "type": "uint256"
        },
        {
          "indexed": false,
          "internalType": "address payable",
          "name": "author",
          "type": "address"
        }
      ],
      "name": "DiverCreated",
      "type": "event"
    },
    {
      "inputs": [
        {
          "internalType": "uint256",
          "name": "",
          "type": "uint256"
        }
      ],
      "name": "driver",
      "outputs": [
        {
          "internalType": "uint256",
          "name": "id",
          "type": "uint256"
        },
        {
          "internalType": "string",
          "name": "hash",
          "type": "string"
        },
        {
          "internalType": "string",
          "name": "name",
          "type": "string"
        },
        {
          "internalType": "uint256",
          "name": "tipAmount",
          "type": "uint256"
        },
        {
          "internalType": "address payable",
          "name": "author",
          "type": "address"
        }
      ],
      "stateMutability": "view",
      "type": "function",
      "constant": true
    },
    {
      "inputs": [],
      "name": "imgCount",
      "outputs": [
        {
          "internalType": "uint256",
          "name": "",
          "type": "uint256"
        }
      ],
      "stateMutability": "view",
      "type": "function",
      "constant": true
    },
    {
      "inputs": [],
      "name": "name",
      "outputs": [
        {
          "internalType": "string",
          "name": "",
          "type": "string"
        }
      ],
      "stateMutability": "view",
      "type": "function",
      "constant": true
    },
    {
      "inputs": [
        {
          "internalType": "string",
          "name": "_imgHash",
          "type": "string"
        },
        {
          "internalType": "string",
          "name": "_name",
          "type": "string"
        }
      ],
      "name": "uploadImg",
      "outputs": [],
      "stateMutability": "nonpayable",
      "type": "function"
    }
  ],
  "bytecode": "0x60806040526040518060400160405280601181526020017f447269766572277320436f6e7472616374000000000000000000000000000000815250600090816200004a9190620002de565b5060006001553480156200005d57600080fd5b50620003c5565b600081519050919050565b7f4e487b7100000000000000000000000000000000000000000000000000000000600052604160045260246000fd5b7f4e487b7100000000000000000000000000000000000000000000000000000000600052602260045260246000fd5b60006002820490506001821680620000e657607f821691505b602082108103620000fc57620000fb6200009e565b5b50919050565b60008190508160005260206000209050919050565b60006020601f8301049050919050565b600082821b905092915050565b600060088302620001667fffffffffffffffffffffffffffffffffffffffffffffffffffffffffffffffff8262000127565b62000172868362000127565b95508019841693508086168417925050509392505050565b6000819050919050565b6000819050919050565b6000620001bf620001b9620001b3846200018a565b62000194565b6200018a565b9050919050565b6000819050919050565b620001db836200019e565b620001f3620001ea82620001c6565b84845462000134565b825550505050565b600090565b6200020a620001fb565b62000217818484620001d0565b505050565b5b818110156200023f576200023360008262000200565b6001810190506200021d565b5050565b601f8211156200028e57620002588162000102565b620002638462000117565b8101602085101562000273578190505b6200028b620002828562000117565b8301826200021c565b50505b505050565b600082821c905092915050565b6000620002b36000198460080262000293565b1980831691505092915050565b6000620002ce8383620002a0565b9150826002028217905092915050565b620002e98262000064565b67ffffffffffffffff8111156200030557620003046200006f565b5b620003118254620000cd565b6200031e82828562000243565b600060209050601f83116001811462000356576000841562000341578287015190505b6200034d8582620002c0565b865550620003bd565b601f198416620003668662000102565b60005b82811015620003905784890151825560018201915060208501945060208101905062000369565b86831015620003b05784890151620003ac601f891682620002a0565b8355505b6001600288020188555050505b505050505050565b610c3e80620003d56000396000f3fe608060405234801561001057600080fd5b506004361061004c5760003560e01c806306fdde03146100515780635514e2ac1461006f578063de6565e31461008b578063ed99bccc146100bf575b600080fd5b6100596100dd565b6040516100669190610505565b60405180910390f35b61008960048036038101906100849190610670565b61016b565b005b6100a560048036038101906100a0919061071e565b610309565b6040516100b695949392919061079b565b60405180910390f35b6100c761046f565b6040516100d491906107fc565b60405180910390f35b600080546100ea90610846565b80601f016020809104026020016040519081016040528092919081815260200182805461011690610846565b80156101635780601f1061013857610100808354040283529160200191610163565b820191906000526020600020905b81548152906001019060200180831161014657829003601f168201915b505050505081565b600082511161017957600080fd5b600080805461018790610846565b90501161019357600080fd5b600073ffffffffffffffffffffffffffffffffffffffff163373ffffffffffffffffffffffffffffffffffffffff16036101cc57600080fd5b600160008154809291906101df906108a6565b91905055506040518060a001604052806001548152602001838152602001828152602001600081526020013373ffffffffffffffffffffffffffffffffffffffff168152506002600060015481526020019081526020016000206000820151816000015560208201518160010190816102589190610a9a565b50604082015181600201908161026e9190610a9a565b506060820151816003015560808201518160040160006101000a81548173ffffffffffffffffffffffffffffffffffffffff021916908373ffffffffffffffffffffffffffffffffffffffff1602179055509050507fb3a47559a05fca476f9514c80bc2db4cc37da56b498bfc250b65f0842932dcf260015483836000336040516102fd959493929190610ba7565b60405180910390a15050565b600260205280600052604060002060009150905080600001549080600101805461033290610846565b80601f016020809104026020016040519081016040528092919081815260200182805461035e90610846565b80156103ab5780601f10610380576101008083540402835291602001916103ab565b820191906000526020600020905b81548152906001019060200180831161038e57829003601f168201915b5050505050908060020180546103c090610846565b80601f01602080910402602001604051908101604052809291908181526020018280546103ec90610846565b80156104395780601f1061040e57610100808354040283529160200191610439565b820191906000526020600020905b81548152906001019060200180831161041c57829003601f168201915b5050505050908060030154908060040160009054906101000a900473ffffffffffffffffffffffffffffffffffffffff16905085565b60015481565b600081519050919050565b600082825260208201905092915050565b60005b838110156104af578082015181840152602081019050610494565b60008484015250505050565b6000601f19601f8301169050919050565b60006104d782610475565b6104e18185610480565b93506104f1818560208601610491565b6104fa816104bb565b840191505092915050565b6000602082019050818103600083015261051f81846104cc565b905092915050565b6000604051905090565b600080fd5b600080fd5b600080fd5b600080fd5b7f4e487b7100000000000000000000000000000000000000000000000000000000600052604160045260246000fd5b61057d826104bb565b810181811067ffffffffffffffff8211171561059c5761059b610545565b5b80604052505050565b60006105af610527565b90506105bb8282610574565b919050565b600067ffffffffffffffff8211156105db576105da610545565b5b6105e4826104bb565b9050602081019050919050565b82818337600083830152505050565b600061061361060e846105c0565b6105a5565b90508281526020810184848401111561062f5761062e610540565b5b61063a8482856105f1565b509392505050565b600082601f8301126106575761065661053b565b5b8135610667848260208601610600565b91505092915050565b6000806040838503121561068757610686610531565b5b600083013567ffffffffffffffff8111156106a5576106a4610536565b5b6106b185828601610642565b925050602083013567ffffffffffffffff8111156106d2576106d1610536565b5b6106de85828601610642565b9150509250929050565b6000819050919050565b6106fb816106e8565b811461070657600080fd5b50565b600081359050610718816106f2565b92915050565b60006020828403121561073457610733610531565b5b600061074284828501610709565b91505092915050565b610754816106e8565b82525050565b600073ffffffffffffffffffffffffffffffffffffffff82169050919050565b60006107858261075a565b9050919050565b6107958161077a565b82525050565b600060a0820190506107b0600083018861074b565b81810360208301526107c281876104cc565b905081810360408301526107d681866104cc565b90506107e5606083018561074b565b6107f2608083018461078c565b9695505050505050565b6000602082019050610811600083018461074b565b92915050565b7f4e487b7100000000000000000000000000000000000000000000000000000000600052602260045260246000fd5b6000600282049050600182168061085e57607f821691505b60208210810361087157610870610817565b5b50919050565b7f4e487b7100000000000000000000000000000000000000000000000000000000600052601160045260246000fd5b60006108b1826106e8565b91507fffffffffffffffffffffffffffffffffffffffffffffffffffffffffffffffff82036108e3576108e2610877565b5b600182019050919050565b60008190508160005260206000209050919050565b60006020601f8301049050919050565b600082821b905092915050565b6000600883026109507fffffffffffffffffffffffffffffffffffffffffffffffffffffffffffffffff82610913565b61095a8683610913565b95508019841693508086168417925050509392505050565b6000819050919050565b600061099761099261098d846106e8565b610972565b6106e8565b9050919050565b6000819050919050565b6109b18361097c565b6109c56109bd8261099e565b848454610920565b825550505050565b600090565b6109da6109cd565b6109e58184846109a8565b505050565b5b81811015610a09576109fe6000826109d2565b6001810190506109eb565b5050565b601f821115610a4e57610a1f816108ee565b610a2884610903565b81016020851015610a37578190505b610a4b610a4385610903565b8301826109ea565b50505b505050565b600082821c905092915050565b6000610a7160001984600802610a53565b1980831691505092915050565b6000610a8a8383610a60565b9150826002028217905092915050565b610aa382610475565b67ffffffffffffffff811115610abc57610abb610545565b5b610ac68254610846565b610ad1828285610a0d565b600060209050601f831160018114610b045760008415610af2578287015190505b610afc8582610a7e565b865550610b64565b601f198416610b12866108ee565b60005b82811015610b3a57848901518255600182019150602085019450602081019050610b15565b86831015610b575784890151610b53601f891682610a60565b8355505b6001600288020188555050505b505050505050565b6000819050919050565b6000610b91610b8c610b8784610b6c565b610972565b6106e8565b9050919050565b610ba181610b76565b82525050565b600060a082019050610bbc600083018861074b565b8181036020830152610bce81876104cc565b90508181036040830152610be281866104cc565b9050610bf16060830185610b98565b610bfe608083018461078c565b969550505050505056fea264697066735822122095c8608e71369bdbb6698f8a992bb71e3b4bd7a74aee852fd13ae4b39c18914c64736f6c63430008130033",
  "immutableReferences": {},
  "source": "// SPDX-License-Identifier: MIT\n\npragma solidity >0.4.17 < 0.9.0;\n\ncontract DriverContract {\n  // Code goes here... \n\n  string public name=\"Driver's Contract\";\n\n  uint public imgCount = 0;\n  mapping (uint => Driver) public driver;\n\n  struct Driver{\n    uint id;\n    string hash;\n    string name;\n    uint tipAmount;\n    address payable author;\n  }\n\n  event DiverCreated(\n    uint id,\n    string hash,\n    string name,\n    uint tipAmount,\n    address payable author\n  );\n\n  function uploadImg(string memory _imgHash, string memory _name) public {\n\n    require(bytes(_imgHash).length > 0);\n\n    require(bytes(name).length > 0);\n\n    require(msg.sender!=address(0x0));\n\n    imgCount++;\n\n    driver[imgCount] = Driver(imgCount, _imgHash, _name, 0 , payable(msg.sender));\n\n    emit DiverCreated(imgCount, _imgHash, _name, 0 ,payable(msg.sender));\n  }\n/*\n  event ImageTipped(\n    uint id,\n    string hash,\n    string description,\n    uint tipAmount,\n    address payable author\n  );\n\n  function tipImageOwner(uint _id) public payable {\n    // Make sure the id is valid\n    require(_id > 0 && _id <= imageCount);\n    // Fetch the image\n    Image memory _image = images[_id];\n    // Fetch the author\n    address payable _author = _image.author;\n    // Pay the author by sending them Ether\n    address(_author).transfer(msg.value);\n    // Increment the tip amount\n    _image.tipAmount = _image.tipAmount + msg.value;\n    // Update the image\n    images[_id] = _image;\n    // Trigger an event\n    emit ImageTipped(_id, _image.hash, _image.description, _image.tipAmount, _author);\n  }\n*/\n}",
  "sourcePath": "C:\\Peer-to-Peer-ridesharing-using-Blockchain-main\\backend\\contracts\\DriverContract.sol",
  "compiler": {
    "name": "solc",
    "version": "0.8.19+commit.7dd6d404.Emscripten.clang"
  },
  "schemaVersion": "3.4.13",
  "updatedAt": "2023-05-11T08:26:48.204Z",
  "networkType": "ethereum",
  "devdoc": {
    "kind": "dev",
    "methods": {},
    "version": 1
  },
  "userdoc": {
    "kind": "user",
    "methods": {},
    "version": 1
  }
}