{
  "contractName": "user",
  "abi": [
    {
      "anonymous": false,
      "inputs": [
        {
          "indexed": false,
          "internalType": "uint256",
          "name": "did",
          "type": "uint256"
        },
        {
          "indexed": false,
          "internalType": "string",
          "name": "hash",
          "type": "string"
        },
        {
          "indexed": false,
          "internalType": "string",
          "name": "driver_name",
          "type": "string"
        },
        {
          "indexed": false,
          "internalType": "uint256",
          "name": "drivertipAmount",
          "type": "uint256"
        },
        {
          "indexed": false,
          "internalType": "string",
          "name": "verified",
          "type": "string"
        },
        {
          "indexed": false,
          "internalType": "address payable",
          "name": "author",
          "type": "address"
        }
      ],
      "name": "DiverCreated",
      "type": "event"
    },
    {
      "anonymous": false,
      "inputs": [
        {
          "indexed": false,
          "internalType": "uint256",
          "name": "rid",
          "type": "uint256"
        },
        {
          "indexed": false,
          "internalType": "string",
          "name": "rsource",
          "type": "string"
        },
        {
          "indexed": false,
          "internalType": "string",
          "name": "rdestination",
          "type": "string"
        },
        {
          "indexed": false,
          "internalType": "string",
          "name": "rdate",
          "type": "string"
        },
        {
          "indexed": false,
          "internalType": "string",
          "name": "rtime",
          "type": "string"
        },
        {
          "indexed": false,
          "internalType": "string",
          "name": "rider",
          "type": "string"
        },
        {
          "indexed": false,
          "internalType": "uint256",
          "name": "rideamount",
          "type": "uint256"
        },
        {
          "indexed": false,
          "internalType": "address payable",
          "name": "author",
          "type": "address"
        }
      ],
      "name": "RideCreated",
      "type": "event"
    },
    {
      "anonymous": false,
      "inputs": [
        {
          "indexed": false,
          "internalType": "uint256",
          "name": "id",
          "type": "uint256"
        },
        {
          "indexed": false,
          "internalType": "string",
          "name": "source",
          "type": "string"
        },
        {
          "indexed": false,
          "internalType": "string",
          "name": "destination",
          "type": "string"
        },
        {
          "indexed": false,
          "internalType": "uint256",
          "name": "tipAmount",
          "type": "uint256"
        },
        {
          "indexed": false,
          "internalType": "string",
          "name": "date",
          "type": "string"
        },
        {
          "indexed": false,
          "internalType": "string",
          "name": "time",
          "type": "string"
        },
        {
          "indexed": false,
          "internalType": "address payable",
          "name": "author",
          "type": "address"
        }
      ],
      "name": "UserCreated",
      "type": "event"
    },
    {
      "anonymous": false,
      "inputs": [
        {
          "indexed": false,
          "internalType": "uint256",
          "name": "id",
          "type": "uint256"
        },
        {
          "indexed": false,
          "internalType": "uint256",
          "name": "amount",
          "type": "uint256"
        },
        {
          "indexed": false,
          "internalType": "address payable",
          "name": "author",
          "type": "address"
        }
      ],
      "name": "rideAmount",
      "type": "event"
    },
    {
      "inputs": [
        {
          "internalType": "uint256",
          "name": "",
          "type": "uint256"
        }
      ],
      "name": "driver",
      "outputs": [
        {
          "internalType": "uint256",
          "name": "did",
          "type": "uint256"
        },
        {
          "internalType": "string",
          "name": "hash",
          "type": "string"
        },
        {
          "internalType": "string",
          "name": "driver_name",
          "type": "string"
        },
        {
          "internalType": "uint256",
          "name": "drivertipAmount",
          "type": "uint256"
        },
        {
          "internalType": "bool",
          "name": "verify",
          "type": "bool"
        },
        {
          "internalType": "string",
          "name": "verified",
          "type": "string"
        },
        {
          "internalType": "address payable",
          "name": "author",
          "type": "address"
        }
      ],
      "stateMutability": "view",
      "type": "function",
      "constant": true
    },
    {
      "inputs": [],
      "name": "imgCount",
      "outputs": [
        {
          "internalType": "uint256",
          "name": "",
          "type": "uint256"
        }
      ],
      "stateMutability": "view",
      "type": "function",
      "constant": true
    },
    {
      "inputs": [],
      "name": "name",
      "outputs": [
        {
          "internalType": "string",
          "name": "",
          "type": "string"
        }
      ],
      "stateMutability": "view",
      "type": "function",
      "constant": true
    },
    {
      "inputs": [],
      "name": "reqCount",
      "outputs": [
        {
          "internalType": "uint256",
          "name": "",
          "type": "uint256"
        }
      ],
      "stateMutability": "view",
      "type": "function",
      "constant": true
    },
    {
      "inputs": [
        {
          "internalType": "uint256",
          "name": "",
          "type": "uint256"
        }
      ],
      "name": "ride",
      "outputs": [
        {
          "internalType": "uint256",
          "name": "rid",
          "type": "uint256"
        },
        {
          "internalType": "string",
          "name": "rsource",
          "type": "string"
        },
        {
          "internalType": "string",
          "name": "rdestination",
          "type": "string"
        },
        {
          "internalType": "string",
          "name": "rdate",
          "type": "string"
        },
        {
          "internalType": "string",
          "name": "rtime",
          "type": "string"
        },
        {
          "internalType": "string",
          "name": "rider",
          "type": "string"
        },
        {
          "internalType": "uint256",
          "name": "rideamount",
          "type": "uint256"
        },
        {
          "internalType": "address payable",
          "name": "author",
          "type": "address"
        }
      ],
      "stateMutability": "view",
      "type": "function",
      "constant": true
    },
    {
      "inputs": [],
      "name": "rideCount",
      "outputs": [
        {
          "internalType": "uint256",
          "name": "",
          "type": "uint256"
        }
      ],
      "stateMutability": "view",
      "type": "function",
      "constant": true
    },
    {
      "inputs": [
        {
          "internalType": "uint256",
          "name": "",
          "type": "uint256"
        }
      ],
      "name": "users",
      "outputs": [
        {
          "internalType": "uint256",
          "name": "id",
          "type": "uint256"
        },
        {
          "internalType": "string",
          "name": "source",
          "type": "string"
        },
        {
          "internalType": "string",
          "name": "destination",
          "type": "string"
        },
        {
          "internalType": "uint256",
          "name": "tipAmount",
          "type": "uint256"
        },
        {
          "internalType": "string",
          "name": "date",
          "type": "string"
        },
        {
          "internalType": "string",
          "name": "time",
          "type": "string"
        },
        {
          "internalType": "address payable",
          "name": "author",
          "type": "address"
        }
      ],
      "stateMutability": "view",
      "type": "function",
      "constant": true
    },
    {
      "inputs": [
        {
          "internalType": "string",
          "name": "_source",
          "type": "string"
        },
        {
          "internalType": "string",
          "name": "_destination",
          "type": "string"
        },
        {
          "internalType": "string",
          "name": "_date",
          "type": "string"
        },
        {
          "internalType": "string",
          "name": "_time",
          "type": "string"
        }
      ],
      "name": "rideReq",
      "outputs": [],
      "stateMutability": "nonpayable",
      "type": "function"
    },
    {
      "inputs": [
        {
          "internalType": "string",
          "name": "_imgHash",
          "type": "string"
        },
        {
          "internalType": "string",
          "name": "_name",
          "type": "string"
        },
        {
          "internalType": "bool",
          "name": "_verified",
          "type": "bool"
        }
      ],
      "name": "uploadImg",
      "outputs": [],
      "stateMutability": "nonpayable",
      "type": "function"
    },
    {
      "inputs": [
        {
          "internalType": "uint256",
          "name": "_id",
          "type": "uint256"
        },
        {
          "internalType": "string",
          "name": "hashs",
          "type": "string"
        },
        {
          "internalType": "string",
          "name": "dname",
          "type": "string"
        },
        {
          "internalType": "address payable",
          "name": "author",
          "type": "address"
        }
      ],
      "name": "verifyDriver",
      "outputs": [],
      "stateMutability": "nonpayable",
      "type": "function"
    },
    {
      "inputs": [
        {
          "internalType": "string",
          "name": "_rsource",
          "type": "string"
        },
        {
          "internalType": "string",
          "name": "_rdestination",
          "type": "string"
        },
        {
          "internalType": "string",
          "name": "_rdate",
          "type": "string"
        },
        {
          "internalType": "string",
          "name": "_rtime",
          "type": "string"
        },
        {
          "internalType": "string",
          "name": "_ride",
          "type": "string"
        },
        {
          "internalType": "uint256",
          "name": "amount",
          "type": "uint256"
        }
      ],
      "name": "uploadRide",
      "outputs": [],
      "stateMutability": "nonpayable",
      "type": "function"
    },
    {
      "inputs": [
        {
          "internalType": "address payable",
          "name": "_author",
          "type": "address"
        }
      ],
      "name": "ridePayment",
      "outputs": [],
      "stateMutability": "payable",
      "type": "function",
      "payable": true
    }
  ],
  "bytecode": "0x60806040526040518060400160405280600f81526020017f55736572277320436f6e74726163740000000000000000000000000000000000815250600090816200004a9190620002e8565b506000600155600060035560006005553480156200006757600080fd5b50620003cf565b600081519050919050565b7f4e487b7100000000000000000000000000000000000000000000000000000000600052604160045260246000fd5b7f4e487b7100000000000000000000000000000000000000000000000000000000600052602260045260246000fd5b60006002820490506001821680620000f057607f821691505b602082108103620001065762000105620000a8565b5b50919050565b60008190508160005260206000209050919050565b60006020601f8301049050919050565b600082821b905092915050565b600060088302620001707fffffffffffffffffffffffffffffffffffffffffffffffffffffffffffffffff8262000131565b6200017c868362000131565b95508019841693508086168417925050509392505050565b6000819050919050565b6000819050919050565b6000620001c9620001c3620001bd8462000194565b6200019e565b62000194565b9050919050565b6000819050919050565b620001e583620001a8565b620001fd620001f482620001d0565b8484546200013e565b825550505050565b600090565b6200021462000205565b62000221818484620001da565b505050565b5b8181101562000249576200023d6000826200020a565b60018101905062000227565b5050565b601f821115620002985762000262816200010c565b6200026d8462000121565b810160208510156200027d578190505b620002956200028c8562000121565b83018262000226565b50505b505050565b600082821c905092915050565b6000620002bd600019846008026200029d565b1980831691505092915050565b6000620002d88383620002aa565b9150826002028217905092915050565b620002f3826200006e565b67ffffffffffffffff8111156200030f576200030e62000079565b5b6200031b8254620000d7565b620003288282856200024d565b600060209050601f8311600181146200036057600084156200034b578287015190505b620003578582620002ca565b865550620003c7565b601f19841662000370866200010c565b60005b828110156200039a5784890151825560018201915060208501945060208101905062000373565b86831015620003ba5784890151620003b6601f891682620002aa565b8355505b6001600288020188555050505b505050505050565b611f7c80620003df6000396000f3fe6080604052600436106100a75760003560e01c806391fc95f71161006457806391fc95f7146101c0578063b47c188314610204578063b70bf16f1461022f578063de6565e31461024b578063ed99bccc1461028e578063f923ab9f146102b9576100a7565b806306fdde03146100ac578063365b98b2146100d757806365b686241461011a5780636f0ec984146101455780637474da581461016e57806381ffa9e914610197575b600080fd5b3480156100b857600080fd5b506100c16102e2565b6040516100ce9190611312565b60405180910390f35b3480156100e357600080fd5b506100fe60048036038101906100f9919061137e565b610370565b60405161011197969594939291906113fb565b60405180910390f35b34801561012657600080fd5b5061012f6105f2565b60405161013c9190611486565b60405180910390f35b34801561015157600080fd5b5061016c600480360381019061016791906115d6565b6105f8565b005b34801561017a57600080fd5b506101956004803603810190610190919061171b565b610792565b005b3480156101a357600080fd5b506101be60048036038101906101b991906117ba565b6108ed565b005b3480156101cc57600080fd5b506101e760048036038101906101e2919061137e565b610abd565b6040516101fb989796959493929190611891565b60405180910390f35b34801561021057600080fd5b50610219610dcd565b6040516102269190611486565b60405180910390f35b61024960048036038101906102449190611932565b610dd3565b005b34801561025757600080fd5b50610272600480360381019061026d919061137e565b610e1d565b604051610285979695949392919061197a565b60405180910390f35b34801561029a57600080fd5b506102a3611024565b6040516102b09190611486565b60405180910390f35b3480156102c557600080fd5b506102e060048036038101906102db9190611a2a565b61102a565b005b600080546102ef90611ae4565b80601f016020809104026020016040519081016040528092919081815260200182805461031b90611ae4565b80156103685780601f1061033d57610100808354040283529160200191610368565b820191906000526020600020905b81548152906001019060200180831161034b57829003601f168201915b505050505081565b600260205280600052604060002060009150905080600001549080600101805461039990611ae4565b80601f01602080910402602001604051908101604052809291908181526020018280546103c590611ae4565b80156104125780601f106103e757610100808354040283529160200191610412565b820191906000526020600020905b8154815290600101906020018083116103f557829003601f168201915b50505050509080600201805461042790611ae4565b80601f016020809104026020016040519081016040528092919081815260200182805461045390611ae4565b80156104a05780601f10610475576101008083540402835291602001916104a0565b820191906000526020600020905b81548152906001019060200180831161048357829003601f168201915b5050505050908060030154908060040180546104bb90611ae4565b80601f01602080910402602001604051908101604052809291908181526020018280546104e790611ae4565b80156105345780601f1061050957610100808354040283529160200191610534565b820191906000526020600020905b81548152906001019060200180831161051757829003601f168201915b50505050509080600501805461054990611ae4565b80601f016020809104026020016040519081016040528092919081815260200182805461057590611ae4565b80156105c25780601f10610597576101008083540402835291602001916105c2565b820191906000526020600020905b8154815290600101906020018083116105a557829003601f168201915b5050505050908060060160009054906101000a900473ffffffffffffffffffffffffffffffffffffffff16905087565b60015481565b6005600081548092919061060b90611b44565b919050555060405180610100016040528060055481526020018781526020018681526020018581526020018481526020018381526020018281526020013373ffffffffffffffffffffffffffffffffffffffff168152506006600060055481526020019081526020016000206000820151816000015560208201518160010190816106969190611d38565b5060408201518160020190816106ac9190611d38565b5060608201518160030190816106c29190611d38565b5060808201518160040190816106d89190611d38565b5060a08201518160050190816106ee9190611d38565b5060c0820151816006015560e08201518160070160006101000a81548173ffffffffffffffffffffffffffffffffffffffff021916908373ffffffffffffffffffffffffffffffffffffffff1602179055509050507f0cf559d12ff48dc9689e3bc0d05ad3b3bfc81aeb70ac4e62d4d0a985ea82f6b260055487878787878733604051610782989796959493929190611891565b60405180910390a1505050505050565b6040518060e00160405280858152602001848152602001838152602001600081526020016001151581526020016040518060400160405280601381526020017f50726f66696c652069732076657269666965640000000000000000000000000081525081526020018273ffffffffffffffffffffffffffffffffffffffff16815250600460008681526020019081526020016000206000820151816000015560208201518160010190816108469190611d38565b50604082015181600201908161085c9190611d38565b506060820151816003015560808201518160040160006101000a81548160ff02191690831515021790555060a082015181600501908161089c9190611d38565b5060c08201518160060160006101000a81548173ffffffffffffffffffffffffffffffffffffffff021916908373ffffffffffffffffffffffffffffffffffffffff16021790555090505050505050565b60008451116108fb57600080fd5b600083511161090957600080fd5b600073ffffffffffffffffffffffffffffffffffffffff163373ffffffffffffffffffffffffffffffffffffffff160361094257600080fd5b6001600081548092919061095590611b44565b91905055506040518060e001604052806001548152602001858152602001848152602001600081526020018381526020018281526020013373ffffffffffffffffffffffffffffffffffffffff168152506002600060015481526020019081526020016000206000820151816000015560208201518160010190816109da9190611d38565b5060408201518160020190816109f09190611d38565b50606082015181600301556080820151816004019081610a109190611d38565b5060a0820151816005019081610a269190611d38565b5060c08201518160060160006101000a81548173ffffffffffffffffffffffffffffffffffffffff021916908373ffffffffffffffffffffffffffffffffffffffff1602179055509050507f3b521bcf5a890f39562e91481416c6f41fe20cf14db929be720487e1a456e2f660015485856000868633604051610aaf9796959493929190611e45565b60405180910390a150505050565b6006602052806000526040600020600091509050806000015490806001018054610ae690611ae4565b80601f0160208091040260200160405190810160405280929190818152602001828054610b1290611ae4565b8015610b5f5780601f10610b3457610100808354040283529160200191610b5f565b820191906000526020600020905b815481529060010190602001808311610b4257829003601f168201915b505050505090806002018054610b7490611ae4565b80601f0160208091040260200160405190810160405280929190818152602001828054610ba090611ae4565b8015610bed5780601f10610bc257610100808354040283529160200191610bed565b820191906000526020600020905b815481529060010190602001808311610bd057829003601f168201915b505050505090806003018054610c0290611ae4565b80601f0160208091040260200160405190810160405280929190818152602001828054610c2e90611ae4565b8015610c7b5780601f10610c5057610100808354040283529160200191610c7b565b820191906000526020600020905b815481529060010190602001808311610c5e57829003601f168201915b505050505090806004018054610c9090611ae4565b80601f0160208091040260200160405190810160405280929190818152602001828054610cbc90611ae4565b8015610d095780601f10610cde57610100808354040283529160200191610d09565b820191906000526020600020905b815481529060010190602001808311610cec57829003601f168201915b505050505090806005018054610d1e90611ae4565b80601f0160208091040260200160405190810160405280929190818152602001828054610d4a90611ae4565b8015610d975780601f10610d6c57610100808354040283529160200191610d97565b820191906000526020600020905b815481529060010190602001808311610d7a57829003601f168201915b5050505050908060060154908060070160009054906101000a900473ffffffffffffffffffffffffffffffffffffffff16905088565b60055481565b8073ffffffffffffffffffffffffffffffffffffffff166108fc349081150290604051600060405180830381858888f19350505050158015610e19573d6000803e3d6000fd5b5050565b6004602052806000526040600020600091509050806000015490806001018054610e4690611ae4565b80601f0160208091040260200160405190810160405280929190818152602001828054610e7290611ae4565b8015610ebf5780601f10610e9457610100808354040283529160200191610ebf565b820191906000526020600020905b815481529060010190602001808311610ea257829003601f168201915b505050505090806002018054610ed490611ae4565b80601f0160208091040260200160405190810160405280929190818152602001828054610f0090611ae4565b8015610f4d5780601f10610f2257610100808354040283529160200191610f4d565b820191906000526020600020905b815481529060010190602001808311610f3057829003601f168201915b5050505050908060030154908060040160009054906101000a900460ff1690806005018054610f7b90611ae4565b80601f0160208091040260200160405190810160405280929190818152602001828054610fa790611ae4565b8015610ff45780601f10610fc957610100808354040283529160200191610ff4565b820191906000526020600020905b815481529060010190602001808311610fd757829003601f168201915b5050505050908060060160009054906101000a900473ffffffffffffffffffffffffffffffffffffffff16905087565b60035481565b600083511161103857600080fd5b600082511161104657600080fd5b600073ffffffffffffffffffffffffffffffffffffffff163373ffffffffffffffffffffffffffffffffffffffff160361107f57600080fd5b606081156110c4576040518060400160405280601381526020017f50726f66696c652069732076657269666965640000000000000000000000000081525090506110fd565b6040518060400160405280601781526020017f50726f66696c65206973206e6f7420766572696669656400000000000000000081525090505b6003600081548092919061111090611b44565b91905055506040518060e0016040528060035481526020018581526020018481526020016000815260200183151581526020018281526020013373ffffffffffffffffffffffffffffffffffffffff168152506004600060035481526020019081526020016000206000820151816000015560208201518160010190816111979190611d38565b5060408201518160020190816111ad9190611d38565b506060820151816003015560808201518160040160006101000a81548160ff02191690831515021790555060a08201518160050190816111ed9190611d38565b5060c08201518160060160006101000a81548173ffffffffffffffffffffffffffffffffffffffff021916908373ffffffffffffffffffffffffffffffffffffffff1602179055509050507f8644ef16e814399abd8682bf0d953a0559a990e93d4bdb9c4f0a210892fc1c0c60035485856000853360405161127496959493929190611ed0565b60405180910390a150505050565b600081519050919050565b600082825260208201905092915050565b60005b838110156112bc5780820151818401526020810190506112a1565b60008484015250505050565b6000601f19601f8301169050919050565b60006112e482611282565b6112ee818561128d565b93506112fe81856020860161129e565b611307816112c8565b840191505092915050565b6000602082019050818103600083015261132c81846112d9565b905092915050565b6000604051905090565b600080fd5b600080fd5b6000819050919050565b61135b81611348565b811461136657600080fd5b50565b60008135905061137881611352565b92915050565b6000602082840312156113945761139361133e565b5b60006113a284828501611369565b91505092915050565b6113b481611348565b82525050565b600073ffffffffffffffffffffffffffffffffffffffff82169050919050565b60006113e5826113ba565b9050919050565b6113f5816113da565b82525050565b600060e082019050611410600083018a6113ab565b818103602083015261142281896112d9565b9050818103604083015261143681886112d9565b905061144560608301876113ab565b818103608083015261145781866112d9565b905081810360a083015261146b81856112d9565b905061147a60c08301846113ec565b98975050505050505050565b600060208201905061149b60008301846113ab565b92915050565b600080fd5b600080fd5b7f4e487b7100000000000000000000000000000000000000000000000000000000600052604160045260246000fd5b6114e3826112c8565b810181811067ffffffffffffffff82111715611502576115016114ab565b5b80604052505050565b6000611515611334565b905061152182826114da565b919050565b600067ffffffffffffffff821115611541576115406114ab565b5b61154a826112c8565b9050602081019050919050565b82818337600083830152505050565b600061157961157484611526565b61150b565b905082815260208101848484011115611595576115946114a6565b5b6115a0848285611557565b509392505050565b600082601f8301126115bd576115bc6114a1565b5b81356115cd848260208601611566565b91505092915050565b60008060008060008060c087890312156115f3576115f261133e565b5b600087013567ffffffffffffffff81111561161157611610611343565b5b61161d89828a016115a8565b965050602087013567ffffffffffffffff81111561163e5761163d611343565b5b61164a89828a016115a8565b955050604087013567ffffffffffffffff81111561166b5761166a611343565b5b61167789828a016115a8565b945050606087013567ffffffffffffffff81111561169857611697611343565b5b6116a489828a016115a8565b935050608087013567ffffffffffffffff8111156116c5576116c4611343565b5b6116d189828a016115a8565b92505060a06116e289828a01611369565b9150509295509295509295565b6116f8816113da565b811461170357600080fd5b50565b600081359050611715816116ef565b92915050565b600080600080608085870312156117355761173461133e565b5b600061174387828801611369565b945050602085013567ffffffffffffffff81111561176457611763611343565b5b611770878288016115a8565b935050604085013567ffffffffffffffff81111561179157611790611343565b5b61179d878288016115a8565b92505060606117ae87828801611706565b91505092959194509250565b600080600080608085870312156117d4576117d361133e565b5b600085013567ffffffffffffffff8111156117f2576117f1611343565b5b6117fe878288016115a8565b945050602085013567ffffffffffffffff81111561181f5761181e611343565b5b61182b878288016115a8565b935050604085013567ffffffffffffffff81111561184c5761184b611343565b5b611858878288016115a8565b925050606085013567ffffffffffffffff81111561187957611878611343565b5b611885878288016115a8565b91505092959194509250565b6000610100820190506118a7600083018b6113ab565b81810360208301526118b9818a6112d9565b905081810360408301526118cd81896112d9565b905081810360608301526118e181886112d9565b905081810360808301526118f581876112d9565b905081810360a083015261190981866112d9565b905061191860c08301856113ab565b61192560e08301846113ec565b9998505050505050505050565b6000602082840312156119485761194761133e565b5b600061195684828501611706565b91505092915050565b60008115159050919050565b6119748161195f565b82525050565b600060e08201905061198f600083018a6113ab565b81810360208301526119a181896112d9565b905081810360408301526119b581886112d9565b90506119c460608301876113ab565b6119d1608083018661196b565b81810360a08301526119e381856112d9565b90506119f260c08301846113ec565b98975050505050505050565b611a078161195f565b8114611a1257600080fd5b50565b600081359050611a24816119fe565b92915050565b600080600060608486031215611a4357611a4261133e565b5b600084013567ffffffffffffffff811115611a6157611a60611343565b5b611a6d868287016115a8565b935050602084013567ffffffffffffffff811115611a8e57611a8d611343565b5b611a9a868287016115a8565b9250506040611aab86828701611a15565b9150509250925092565b7f4e487b7100000000000000000000000000000000000000000000000000000000600052602260045260246000fd5b60006002820490506001821680611afc57607f821691505b602082108103611b0f57611b0e611ab5565b5b50919050565b7f4e487b7100000000000000000000000000000000000000000000000000000000600052601160045260246000fd5b6000611b4f82611348565b91507fffffffffffffffffffffffffffffffffffffffffffffffffffffffffffffffff8203611b8157611b80611b15565b5b600182019050919050565b60008190508160005260206000209050919050565b60006020601f8301049050919050565b600082821b905092915050565b600060088302611bee7fffffffffffffffffffffffffffffffffffffffffffffffffffffffffffffffff82611bb1565b611bf88683611bb1565b95508019841693508086168417925050509392505050565b6000819050919050565b6000611c35611c30611c2b84611348565b611c10565b611348565b9050919050565b6000819050919050565b611c4f83611c1a565b611c63611c5b82611c3c565b848454611bbe565b825550505050565b600090565b611c78611c6b565b611c83818484611c46565b505050565b5b81811015611ca757611c9c600082611c70565b600181019050611c89565b5050565b601f821115611cec57611cbd81611b8c565b611cc684611ba1565b81016020851015611cd5578190505b611ce9611ce185611ba1565b830182611c88565b50505b505050565b600082821c905092915050565b6000611d0f60001984600802611cf1565b1980831691505092915050565b6000611d288383611cfe565b9150826002028217905092915050565b611d4182611282565b67ffffffffffffffff811115611d5a57611d596114ab565b5b611d648254611ae4565b611d6f828285611cab565b600060209050601f831160018114611da25760008415611d90578287015190505b611d9a8582611d1c565b865550611e02565b601f198416611db086611b8c565b60005b82811015611dd857848901518255600182019150602085019450602081019050611db3565b86831015611df55784890151611df1601f891682611cfe565b8355505b6001600288020188555050505b505050505050565b6000819050919050565b6000611e2f611e2a611e2584611e0a565b611c10565b611348565b9050919050565b611e3f81611e14565b82525050565b600060e082019050611e5a600083018a6113ab565b8181036020830152611e6c81896112d9565b90508181036040830152611e8081886112d9565b9050611e8f6060830187611e36565b8181036080830152611ea181866112d9565b905081810360a0830152611eb581856112d9565b9050611ec460c08301846113ec565b98975050505050505050565b600060c082019050611ee560008301896113ab565b8181036020830152611ef781886112d9565b90508181036040830152611f0b81876112d9565b9050611f1a6060830186611e36565b8181036080830152611f2c81856112d9565b9050611f3b60a08301846113ec565b97965050505050505056fea264697066735822122023500997bfa3e1bf4ba7e7d81903b003c6cf3d10ead7461a622141a2126905b364736f6c63430008130033",
  "immutableReferences": {},
  "source": "// SPDX-License-Identifier: MIT\n\npragma solidity >0.4.17 < 0.9.0;\n\ncontract user{\n  //user Code goes here... \n\n  string public name=\"User's Contract\";\n\n  uint public reqCount = 0;\n  mapping (uint => User) public users;\n\n  struct User{\n    uint id;    \n    string source;\n    string destination;\n    uint tipAmount;\n    string date;\n    string time;\n    address payable author;\n  }\n    \n  event UserCreated(\n    uint id,\n    string source,\n    string destination,\n    uint tipAmount,\n    string date,\n    string time,\n    address payable author\n  );\n\n  function rideReq(string memory _source, string memory _destination, string memory _date, string memory _time) public {\n\n    require(bytes(_source).length > 0);\n\n    require(bytes(_destination).length > 0);\n\n    require(msg.sender!=address(0x0));\n\n    reqCount++;\n\n    users[reqCount] = User(reqCount, _source, _destination, 0 ,_date,_time, payable(msg.sender));\n\n    emit UserCreated(reqCount, _source, _destination, 0 ,_date,_time , payable(msg.sender));\n  }\n/*\n  event ImageTipped(\n    uint id,\n    string hash\n    string description,\n    uint tipAmount,\n    address payable author\n  );\n\n  function tipImageOwner(uint _id) public payable {\n    // Make sure the id is valid\n    require(_id > 0 && _id <= imageCount);\n    // Fetch the image\n    Image memory _image = images[_id];\n    // Fetch the author\n    address payable _author = _image.author;\n    // Pay the author by sending them Ether\n    address(_author).transfer(msg.value);\n    // Increment the tip amount\n    _image.tipAmount = _image.tipAmount + msg.value;\n    // Update the image\n    images[_id] = _image;\n    // Trigger an event\n    emit ImageTipped(_id, _image.hash, _image.description, _image.tipAmount, _author);\n  }*/\n\n  //Driver code goes here\n  uint public imgCount = 0;\n  mapping (uint => Driver) public driver;\n\n  struct Driver{\n    uint did;\n    string hash;\n    string driver_name;\n    uint drivertipAmount;\n    bool verify;\n    string verified;    \n    address payable author;\n  } \n\n  event DiverCreated(\n    uint did,\n    string hash,\n    string driver_name,\n    uint drivertipAmount,\n    string verified,\n    address payable author\n  );\n\n  function uploadImg(string memory _imgHash, string memory _name,bool _verified) public {\n\n    require(bytes(_imgHash).length > 0);\n\n    require(bytes(_name).length > 0);\n\n    require(msg.sender!=address(0x0));\n    string memory veri_fy;\n    if(_verified){\n       veri_fy = \"Profile is verified\";\n    }\n    else{\n      veri_fy = \"Profile is not verified\";\n    }\n\n    imgCount++;\n\n    driver[imgCount] = Driver(imgCount, _imgHash, _name, 0 ,_verified,veri_fy,  payable(msg.sender));\n\n    emit DiverCreated(imgCount, _imgHash, _name, 0 ,veri_fy,  payable(msg.sender));\n  }\n\n  function verifyDriver(uint _id, string memory hashs,string memory dname,address payable author) public {\n/*\n    Driver memory _driver = driver[_id];\n\n    _driver.verify = _verification;\n    _driver.driver_name = \"Random Name\";\n\n    if(_verification==true){\n      _driver.verified = \"Profile is verified\";\n\n    }*/\n\n    driver[_id] = Driver(_id,hashs, dname, 0,true ,\"Profile is verified\",author);\n\n    //emit DiverCreated(_id, _driver.hash, _driver.driver_name, 0 ,_driver.verified, _driver.author);\n\n  }\n\n  //Ride code goes here\n  uint public rideCount = 0;\n  mapping (uint => Ride) public ride;\n\n  struct Ride{\n    uint rid;\n    string rsource;\n    string rdestination;\n    string rdate;\n    string rtime;\n    string rider;\n    uint rideamount;\n    address payable author;\n    \n  } \n\n  event RideCreated(\n     uint rid,\n    string rsource,\n    string rdestination,\n    string rdate,\n    string rtime,\n    string rider,\n    uint rideamount,\n    address payable author\n  );\n\n  function uploadRide(string memory _rsource, string memory _rdestination, string memory _rdate, string memory _rtime, string memory _ride, uint amount) public {\n\n    \n\n    rideCount++;\n\n\n    ride[rideCount] = Ride(rideCount, _rsource, _rdestination, _rdate ,_rtime,_ride,amount, payable(msg.sender));\n\n    emit RideCreated(rideCount, _rsource, _rdestination, _rdate ,_rtime,_ride,amount, payable(msg.sender));\n  }\n\n  event rideAmount(\n    uint id,\n    uint amount,\n    address payable author\n  );\n\n  function ridePayment(address payable _author) public payable{\n    \n\n  (_author).transfer(msg.value);\n\n    //emit rideAmount(pid,0,_author);\n\n  }\n}",
  "sourcePath": "C:\\Peer-to-Peer-ridesharing-using-Blockchain-main\\backend\\contracts\\user.sol",
  "compiler": {
    "name": "solc",
    "version": "0.8.19+commit.7dd6d404.Emscripten.clang"
  },
  "schemaVersion": "3.4.13",
  "updatedAt": "2023-05-11T08:26:49.334Z",
  "networkType": "ethereum",
  "devdoc": {
    "kind": "dev",
    "methods": {},
    "version": 1
  },
  "userdoc": {
    "kind": "user",
    "methods": {},
    "version": 1
  }
}